:020000040800F2
:10000000000003205D5500086D450008714500089B
:1000100075450008794500087D450008000000008E
:100020000000000000000000000000008145000802
:100030008545000800000000894500088D4500083E
:10004000AD550008AD550008AD550008AD55000888
:10005000AD550008AD550008AD550008AD55000878
:10006000AD550008AD550008AD550008AD55000868
:10007000AD550008AD550008AD550008AD55000858
:10008000AD550008AD550008AD5500089145000874
:100090009D450008AD550008AD550008AD55000858
:1000A000AD550008AD550008AD550008AD55000828
:1000B000AD550008AD550008AD550008AD55000818
:1000C000AD550008AD550008AD550008AD55000808
:1000D000AD550008A1450008AD550008AD55000814
:1000E000AD550008AD550008AD550008AD550008E8
:1000F000AD550008AD550008AD550008AD550008D8
:10010000AD550008AD550008AD550008AD550008C7
:10011000AD550008AD550008B9450008AD550008BB
:10012000AD550008AD550008C5450008AD5500089F
:10013000AD550008AD550008AD550008AD55000897
:10014000AD550008AD550008AD550008AD55000887
:10015000AD550008D1450008AD5500081D4A0008FE
:10016000AD550008AD550008AD550008AD55000867
:10017000AD550008AD550008AD5500080000000061
:10018000AD550008AD550008AD550008AD55000847
:10019000AD550008AD550008AD550008AD55000837
:0C01A0000000000000000000AD55000849
:1001B00010B5054C237833B9044B13B10448AFF3A1
:1001C00000800123237010BD1002002000000000F9
:1001D0002C72000808B5034B1BB103490348AFF369
:1001E000008008BD00000000140200202C720008EE
:1001F000034613F8012B002AFBD1181A0138704767
:1002000081F0004102E000BF83F0004330B54FEAC7
:1002100041044FEA430594EA050F08BF90EA020F34
:100220001FBF54EA000C55EA020C7FEA645C7FEAC7
:10023000655C00F0E2804FEA5454D4EB5555B8BFEA
:100240006D420CDD2C4480EA020281EA030382EA5B
:10025000000083EA010180EA020281EA0303362DED
:1002600088BF30BD11F0004F4FEA01314FF4801CC0
:100270004CEA113102D0404261EB410113F0004FD2
:100280004FEA03334CEA133302D0524263EB430389
:1002900094EA050F00F0A780A4F10104D5F1200E27
:1002A0000DDB02FA0EFC22FA05F2801841F1000182
:1002B00003FA0EF2801843FA05F359410EE0A5F156
:1002C00020050EF1200E012A03FA0EFC28BF4CF087
:1002D000020C43FA05F3C01851EBE37101F000453D
:1002E00007D54FF0000EDCF1000C7EEB00006EEB4A
:1002F0000101B1F5801F1BD3B1F5001F0CD34908D4
:100300005FEA30004FEA3C0C04F101044FEA44522A
:1003100012F5800F80F09A80BCF1004F08BF5FEAB1
:10032000500C50F1000041EB045141EA050130BD91
:100330005FEA4C0C404141EB010111F4801FA4F134
:100340000104E9D191F0000F04BF01460020B1FA89
:1003500081F308BF2033A3F10B03B3F120020CDAC1
:100360000C3208DD02F1140CC2F10C0201FA0CF09F
:1003700021FA02F10CE002F11402D8BFC2F1200C04
:1003800001FA02F120FA0CFCDCBF41EA0C019040BA
:10039000E41AA2BF01EB0451294330BD6FEA040403
:1003A0001F3C1CDA0C340EDC04F11404C4F12002EE
:1003B00020FA04F001FA02F340EA030021FA04F300
:1003C00045EA030130BDC4F10C04C4F1200220FA57
:1003D00002F001FA04F340EA0300294630BD21FA95
:1003E00004F0294630BD94F0000F83F4801306BF5B
:1003F00081F480110134013D4EE77FEA645C18BF4F
:100400007FEA655C29D094EA050F08BF90EA020FE5
:1004100005D054EA000C04BF1946104630BD91EADD
:10042000030F1EBF0021002030BD5FEA545C05D1E0
:100430004000494128BF41F0004130BD14F580041F
:100440003CBF01F5801130BD01F0004545F0FE4193
:1004500041F470014FF0000030BD7FEA645C1ABFC8
:10046000194610467FEA655C1CBF0B46024650EAFF
:10047000013406BF52EA033591EA030F41F400212B
:1004800030BD00BF90F0000F04BF0021704730B5B1
:100490004FF4806404F132044FF000054FF0000186
:1004A00050E700BF90F0000F04BF0021704730B547
:1004B0004FF4806404F1320410F0004548BF40421C
:1004C0004FF000013EE700BF42004FEAE2014FEA71
:1004D00031014FEA02701FBF12F07F4393F07F4F4C
:1004E00081F06051704732F07F4208BF704793F04F
:1004F0007F4F04BF41F40021704730B54FF4607462
:1005000001F0004521F000411CE700BF50EA010264
:1005100008BF704730B54FF000050AE050EA01020D
:1005200008BF704730B511F0004502D5404261EB7D
:1005300041014FF4806404F132045FEA915C3FF4BE
:10054000D8AE4FF003025FEADC0C18BF03325FEA5B
:10055000DC0C18BF033202EBDC02C2F1200300FA0C
:1005600003FC20FA02F001FA03FE40EA0E0021FA31
:1005700002F11444BDE600BF70B54FF0FF0C4CF41F
:10058000E06C1CEA11541DBF1CEA135594EA0C0FD1
:1005900095EA0C0F00F0DEF82C4481EA030621EA0C
:1005A0004C5123EA4C5350EA013518BF52EA033547
:1005B00041F4801143F4801338D0A0FB02CE4FF0F9
:1005C0000005E1FB02E506F00042E0FB03E54FF029
:1005D0000006E1FB03569CF0000F18BF4EF0010E21
:1005E000A4F1FF04B6F5007F64F5407404D25FEA1D
:1005F0004E0E6D4146EB060642EAC62141EA5551D0
:100600004FEAC52040EA5E504FEACE2EB4F1FD0C11
:1006100088BFBCF5E06F1ED8BEF1004F08BF5FEA8F
:10062000500E50F1000041EB045170BD06F0004641
:1006300046EA010140EA020081EA0301B4EB5C04EE
:10064000C2BFD4EB0C0541EA045170BD41F48011E6
:100650004FF0000E013C00F3AB8014F1360FDEBF0B
:10066000002001F0004170BDC4F10004203C35DAE7
:100670000C341BDC04F11404C4F1200500FA05F36A
:1006800020FA04F001FA05F240EA020001F000420B
:1006900021F0004110EBD37021FA04F642EB060181
:1006A0005EEA430E08BF20EAD37070BDC4F10C04AB
:1006B000C4F1200500FA04F320FA05F001FA04F26F
:1006C00040EA020001F0004110EBD37041F100015B
:1006D0005EEA430E08BF20EAD37070BDC4F1200566
:1006E00000FA05F24EEA020E20FA04F301FA05F2CE
:1006F00043EA020321FA04F001F0004121FA04F276
:1007000020EA020000EBD3705EEA430E08BF20EA45
:10071000D37070BD94F0000F0FD101F0004640007F
:1007200041EB010111F4801F08BF013CF7D041EA01
:10073000060195F0000F18BF704703F00046520005
:1007400043EB030313F4801F08BF013DF7D043EAD6
:100750000603704794EA0C0F0CEA135518BF95EA8C
:100760000C0F0CD050EA410618BF52EA4306D1D113
:1007700081EA030101F000414FF0000070BD50EA32
:10078000410606BF1046194652EA430619D094EABC
:100790000C0F02D150EA013613D195EA0C0F05D1A6
:1007A00052EA03361CBF104619460AD181EA0301FA
:1007B00001F0004141F0FE4141F470014FF00000B2
:1007C00070BD41F0FE4141F4780170BD70B54FF04D
:1007D000FF0C4CF4E06C1CEA11541DBF1CEA1355CD
:1007E00094EA0C0F95EA0C0F00F0A7F8A4EB0504AF
:1007F00081EA030E52EA03354FEA013100F08880A6
:100800004FEA03334FF0805545EA131343EA12636E
:100810004FEA022245EA111545EA10654FEA002623
:100820000EF000419D4208BF964244F1FD0404F5DC
:10083000407402D25B084FEA3202B61A65EB030538
:100840005B084FEA32024FF480104FF4002CB6EBF5
:10085000020E75EB030E22BFB61A754640EA0C0075
:100860005B084FEA3202B6EB020E75EB030E22BFB5
:10087000B61A754640EA5C005B084FEA3202B6EBF6
:10088000020E75EB030E22BFB61A754640EA9C00B5
:100890005B084FEA3202B6EB020E75EB030E22BF85
:1008A000B61A754640EADC0055EA060E18D04FEA43
:1008B000051545EA16754FEA06164FEAC30343EAE3
:1008C00052734FEAC2025FEA1C1CC0D111F4801FB0
:1008D0000BD141EA00014FF000004FF0004CB6E7A9
:1008E00011F4801F04BF01430020B4F1FD0C88BF48
:1008F000BCF5E06F3FF6AFAEB5EB030C04BFB6EB53
:10090000020C5FEA500C50F1000041EB045170BD45
:100910000EF0004E4EEA113114EB5C04C2BFD4EB72
:100920000C0541EA045170BD41F480114FF0000EF6
:10093000013C90E645EA060E8DE60CEA135594EA72
:100940000C0F08BF95EA0C0F3FF43BAF94EA0C0F75
:100950000AD150EA01347FF434AF95EA0C0F7FF4EA
:1009600025AF104619462CE795EA0C0F06D152EA3E
:1009700003353FF4FDAE1046194622E750EA410622
:1009800018BF52EA43067FF4C5AE50EA41047FF433
:100990000DAF52EA43057FF4EBAE12E74FF0FF3C98
:1009A00006E000BF4FF0010C02E000BF4FF0010C69
:1009B0004DF804CD4FEA410C7FEA6C5C4FEA430CE2
:1009C00018BF7FEA6C5C1BD001B050EA410C0CBF31
:1009D00052EA430C91EA030F02BF90EA020F002093
:1009E000704710F1000F91EA030F58BF994208BFFA
:1009F00090422CBFD8176FEAE37040F001007047B7
:100A00004FEA410C7FEA6C5C02D150EA013C07D10D
:100A10004FEA430C7FEA6C5CD6D152EA033CD3D058
:100A20005DF8040B704700BF8446104662468C4652
:100A30001946634600E000BF01B5FFF7B7FF002885
:100A400048BF10F1000F01BD4DF808EDFFF7F4FFAE
:100A50000CBF012000205DF808FB00BF4DF808ED39
:100A6000FFF7EAFF34BF012000205DF808FB00BF5C
:100A70004DF808EDFFF7E0FF94BF012000205DF87E
:100A800008FB00BF4DF808EDFFF7CEFF94BF012033
:100A900000205DF808FB00BF4DF808EDFFF7C4FF2C
:100AA00034BF012000205DF808FB00BF4FEA41027F
:100AB00012F5001215D211D56FF47873B3EB6252B0
:100AC00012D94FEAC12343F0004343EA505311F0D7
:100AD000004F23FA02F018BF404270474FF0000069
:100AE000704750EA013005D111F0004008BF6FF0A7
:100AF000004070474FF00000704700BF4A0011D21D
:100B000012F5001211D20DD56FF47873B3EB625267
:100B10000ED44FEAC12343F0004343EA505323FA73
:100B200002F070474FF00000704750EA013002D1E8
:100B30004FF0FF3070474FF0000070474FEA41021E
:100B4000B2F1E04324BFB3F5001CDCF1FE5C0DD92B
:100B500001F0004C4FEAC0024CEA5070B2F1004F75
:100B600040EB830008BF20F00100704711F0804F78
:100B700021D113F13872BCBF01F00040704741F43D
:100B800080114FEA5252C2F11802C2F1200C10FA41
:100B90000CF320FA02F018BF40F001004FEAC12325
:100BA0004FEAD32303FA0CFC40EA0C0023FA02F3C9
:100BB0004FEA4303CCE77FEA625307D150EA01339F
:100BC0001EBF4FF0FE4040F44000704701F000406F
:100BD00040F0FE4040F40000704700BF53B94AB9EE
:100BE000002908BF00281CBF4FF0FF314FF0FF3035
:100BF00000F072B9ADF1080C6DE904CE00F006F812
:100C0000DDF804E0DDE9022304B070472DE9F04788
:100C1000089E04468846002B4BD18A42154667D968
:100C2000B2FA82F24AB1C2F1200701FA02F320FAC5
:100C300007F7954047EA030894404FEA154E230C06
:100C4000B8FBFEF71FFA85FC0EFB178843EA084342
:100C500007FB0CF1994209D9EB1807F1FF3080F03E
:100C60001B81994240F21881023F2B445B1AA4B2C7
:100C7000B3FBFEF00EFB103344EA034400FB0CFC14
:100C8000A44509D92C1900F1FF3380F00781A44550
:100C900040F2048102382C4440EA0740A4EB0C04E3
:100CA00000271EB1D4400023C6E900433946BDE801
:100CB000F0878B4209D9002E00F0EB800027C6E9AF
:100CC000000138463946BDE8F087B3FA83F7002FB4
:100CD00047D18B4202D3824200F2FA80841A61EB40
:100CE000030301209846002EE0D0C6E90048DDE766
:100CF00002B9FFDEB2FA82F2002A40F08F80491B6F
:100D00004FEA154E1FFA85F80127B1FBFEFC230CB4
:100D10000EFB1C1143EA014308FB0CF1994207D971
:100D2000EB180CF1FF3002D2994200F2CD808446DC
:100D3000591AA3B2B1FBFEF00EFB101443EA0444AF
:100D400008FB00F8A04507D92C1900F1FF3302D2A7
:100D5000A04500F2B6801846A4EB080440EA0C4017
:100D60009FE7C7F1200CBB4022FA0CFE4EEA030EAF
:100D700001FA07F420FA0CF521FA0CF34FEA1E48A9
:100D80002543B3FBF8F92C0C08FB19331FFA8EFA34
:100D900044EA034309FB0AF49C4202FA07F200FA10
:100DA00007F10BD91EEB030309F1FF3080F08780B8
:100DB0009C4240F28480A9F1020973441B1BADB22E
:100DC000B3FBF8F008FB103345EA034400FB0AFAD2
:100DD000A24508D91EEB040400F1FF336BD2A245F3
:100DE00069D90238744440EA0940A0FB0289A4EBA7
:100DF0000A044C45C2464B4654D351D0002E69D00C
:100E0000B1EB0A0564EB030404FA0CFCFD40FC4062
:100E10004CEA0505C6E90054002747E7C2F1200364
:100E200020FA03F7954001FA02F021FA03F34FEAA2
:100E3000154E3843010CB3FBFEF71FFA85F80EFB85
:100E4000173341EA034107FB08F38B4204FA02F42B
:100E500007D9691807F1FF3C2FD28B422DD9023FE9
:100E60002944CB1A81B2B3FBFEF00EFB103341EAEA
:100E7000034100FB08F38B4207D9691800F1FF3CDE
:100E800017D28B4215D902382944C91A40EA0747BC
:100E90003BE73746304609E70746E7E61846FBE6F4
:100EA0004145ABD2B8EB020A69EB0E02013813469A
:100EB000A4E76046E9E7184695E76746D1E781462B
:100EC0007CE702382C4447E7ACF1020C2B442FE7B7
:100ED000384608E73746E9E6704700BF08B50B4BD0
:100EE0001A6842F400721A601A6842F480621A604A
:100EF0001A6842F480721A60032000F065FC00203A
:100F000003F0F4FA03F0D6FA002008BD003C0240DA
:100F1000024A136801331360704700BF1C040020AD
:100F2000014B1868704700BF1C04002030B583B027
:100F30000190FFF7F5FF019C631C054618BF0134C3
:100F4000FFF7EEFF401BA042FAD303B030BD00BF55
:100F50003B4B4A69D3F8000240F00100F0B4C3F8FB
:100F60000002D3F8000220F47C50C3F80002D3F84A
:100F700000024C6A40EA0420C3F800020124D3F8BE
:100F80001C029440E5432840C3F81C02C8690028AD
:100F900047D1D3F80C022840C3F80C02D200CF6826
:100FA00088888E680B8802F1804202F5C84240EAC8
:100FB000074043EA0643C2F84002C2F844328B6954
:100FC0001F4A43BBD2F804322B40C2F804320B69EB
:100FD000C3B91B4AD2F814322B40C2F814320B6A40
:100FE000012B05D1164AD2F81C321C43C2F81C4210
:100FF000134AD2F8003223F001030020C2F8003275
:10100000F0BC7047012BEAD10D4AD2F814322343C9
:10101000C2F81432E3E7D2F804322343C2F80432B0
:10102000D5E70128CBD1D3F80C022043C3F80C023A
:10103000D20002F180420F6888888E688B89B4E7FD
:1010400000640040002800F08B8090F83C3070B5C0
:1010500003F0FF020546002B77D02B68022285F8AB
:101060003C201A6822F002021A601A6842F001025B
:101070001A60FFF755FF064604E0FFF751FF801B9B
:101080000A2867D82A68546814F00104F5D0536818
:10109000D90755D5AB69012B13680CBF43F080030A
:1010A00023F080031360EB69012B13680CBF43F03E
:1010B000400323F0400313602B6A012B13680CBF1D
:1010C00043F0200323F0200313606B6A012B1368A5
:1010D0000CBF43F0100323F010031360AB6A012B25
:1010E00013680CBF43F0080323F008031360EB6A96
:1010F000012B13680CBF43F0040323F004031360B7
:10110000D5E90231D5E904400B4369682343034321
:1011100001390B43D361136823F001031360FFF718
:10112000FFFE044604E0FFF7FBFE001B0A2819D867
:101130002B685A68D207F6D4586810F0010018D00E
:10114000042385F83C30012070BD80F83D2002F07A
:1011500053FA82E7032085F83D4085F83C0070BDD6
:10116000012070470320002385F83C0085F83D30BE
:1011700070BD0123286485F83C3070BD0268936817
:101180005B0103D493681B0140F1858090F83D30EA
:10119000012B00F0C38090F83C30DBB22DE9F04722
:1011A000322B4FF0010480F83D4000F0B380622BF9
:1011B00000F0A880222B00F0A980122380F83C3098
:1011C00093685D0100F19C80936813F0006F0CBF81
:1011D000022401244FEA041C02EB0C03076BD3F832
:1011E0008051D7E9026E05F00105C3F88051002E49
:1011F0007AD13D68D3F880614EEA45553543C3F84E
:1012000080510D4606463969D3F88401DFF83491E0
:10121000DFF8348101F00F0120F00F003961C3F8CD
:101220008401D3F884010143C3F8841162447969CD
:10123000C2F88811B969C2F88C11D3F88021404FE7
:1012400042F00102C3F88021FFF76AFE824632684D
:1012500093684CBB38EA030314BF0123002363B334
:101260006B1CF5D035B1FFF75BFEA0EB0A00A8427E
:10127000EDD93268032386F83C30002C5CD0012C79
:101280000CBF4FF400434FF400039360002386F833
:101290003D30032020E09368DB003FF577AF042367
:1012A00080F83C3001207047012C17D039EA030345
:1012B00014BF01230023002BD2D196F83C30DBB2BF
:1012C000522B35D0722B2FD0422B29D0012386F8F8
:1012D0003C30002086F83D00BDE8F08737EA030384
:1012E00014BF01230023BAE77D6846EA0E06D3F84F
:1012F00080E146EAC50646EA0E06C3F8806180E74B
:10130000002467E7722380F83C3059E7422380F8D5
:101310003C3055E7522380F83C3051E702207047BB
:10132000222386F83C30D4E7622386F83C30D0E7AD
:10133000322386F83C30CCE780239360A6E700BFD9
:1013400000030008000003100300000499BB90F89C
:101350003C30222B41D090F83C30422B3DD090F8CD
:101360003C30622B39D090F83C30722B35D090F85D
:101370003D30012B31D090F83C30DBB20122322BD2
:1013800080F83D2053D0522B61D0122B5BD022230A
:1013900080F83C300168002303644A6942F40F423C
:1013A00042F001024A614A6980F83D3042F00A0287
:1013B00018464A617047012911D190F83C30322B10
:1013C0000BD090F83C30522B07D090F83C30622B79
:1013D00003D090F83C30722B01D10220704790F876
:1013E0003D30012BF9D090F83C30DBB20122222BAA
:1013F00080F83D2017D0422B21D0122B1BD0322356
:1014000080F83C300168002303644A6942F40F42CB
:1014100042F001024A614A6980F83D3042F05002D0
:1014200018464A617047622380F83C30EAE762233D
:1014300080F83C30AEE7522380F83C30E2E772237C
:1014400080F83C30DEE7422380F83C30A2E772238C
:1014500080F83C309EE700BF704700BFF8B50468D5
:10146000D0E90D2304EB0115002908BF1346D5F878
:10147000B02102F004029A60002A7ED1D5F8B02192
:10148000520D1A6004EB0112D5F8B071D5F8B461B1
:10149000D5F8B451D2F8B8C183F814C0D2F8B8C1A5
:1014A00019624FEA1C2C83F815C0D2F8B8C14FEA74
:1014B0001C4C83F816C0D2F8B8C14FEA1C6C83F8F4
:1014C00017C0D2F8BCC183F818C0D2F8BCC14FEA2B
:1014D0001C2C83F819C0D2F8BCC14FEA1C4C83F80D
:1014E0001AC0D2F8BC2107F0020706F00F06C5F3B8
:1014F0000725120EC3E90376DD61DA762023D1B920
:10150000E360636923F00A03636190F83C3003F001
:10151000EF03222B1AD090F83C30DBB2622B38D08C
:10152000722B3DD0422B21D0012380F83C3003F0B8
:1015300093FB0020F8BD2361636923F050036361CE
:1015400090F83C3003F0EF03222B06D10268536978
:1015500023F40F4353610029DDD090F83C30DBB217
:10156000622B0FD0722B22D0522BDDD1122380F8A8
:101570003C3003F071FB0020F8BDD5F8B021D20853
:101580005A607FE7222380F83C3003F065FB00209F
:10159000F8BD322380F83C3003F05EFB0020F8BD3C
:1015A000522380F83C3003F057FB0020F8BD422363
:1015B00080F83C3003F050FB0020F8BD036870B5A4
:1015C000DD68596915F01005044602D011F00805D0
:1015D0007AD11A695969D00601D549066FD45A697A
:1015E000D2070BD59968744A98689E688A437ED062
:1015F000724A82437BD0724AB24378D0DA68596922
:10160000900702D0890700F1A1801A6959699207F1
:1016100002D0CE0600F19480226C154325649A69AD
:1016200059695869D50701D5CA0559D49A695969C4
:101630005869950701D589054BD49A695969586944
:10164000560701D54D0533D49A695969586912F086
:10165000700F1BD0090519D5020417D59A6902F03D
:101660007002302A00F09D8040F28C80502A00F0F9
:101670008480602A00F09080402A03D1226C42F0DE
:10168000400222649A6922F070029A61226C02B9C7
:1016900070BD04210122596084F83C205A6922F46B
:1016A0000F4222F05B0220465A6101F0EBFF70BD51
:1016B0000004C9D5226C42F004022264C4E710225F
:1016C00045F480651A618AE71022DA604FF40075EC
:1016D0007FE70204B1D5226C42F002022264ACE73B
:1016E0000604A3D5226C42F0010222649EE79A68A8
:1016F00099689868960706D48A0504D4860302D4AC
:1017000045F4006517E05A6922F001025A6194F825
:101710003C20122A20D094F83C30DBB2522B28D047
:10172000722B1ED0422B20D0012384F83C3020465F
:10173000FFF792FE23689968224A0A439A605DE7A0
:1017400001212046FFF78AFE236865E70021204635
:10175000FFF784FE236858E75A6922F40F425A6162
:10176000D9E7622384F83C30E1E7222384F83C3057
:10177000DDE7322384F83C30D9E7226C42F0800266
:1017800022647FE7102A11D0202A7FF47BAF226CDD
:1017900042F01002226475E7226C42F480722264E7
:1017A00070E7226C42F0200222646BE7226C42F068
:1017B0000802226466E700BF03000004000300087B
:1017C0000000031019050100074AD3684FF6FF0116
:1017D0000B40000243F0BF6300F4E06043F40033C9
:1017E0000343D360704700BF00ED00E0184BDB6897
:1017F000C3F3022330B4C3F10705042D03F104043D
:1018000028BF0425062C19D9033B4FF0FF349C4018
:1018100022EA04044FF0FF32AA4021EA020101FA51
:1018200003F2224312010028D2B20ADB00F1604029
:1018300000F5614080F8002330BC70470024234647
:10184000E8E7044B00F00F0003441A7630BC704701
:1018500000ED00E0FCEC00E0002807DB00F01F01D9
:1018600001234009024A8B4042F82030704700BFF4
:1018700000E100E0F8B50446FFF752FB002C54D01D
:101880000222236884F835201A68002122F0010220
:1018900084F8341005461A6005E0FFF741FB401B51
:1018A00005283BD823681A68D107F6D4D4E9012665
:1018B000D4E90351324360691F682A43D4E90665BD
:1018C0000A430243216A354832432A430A43616A84
:1018D0003840042942EA000229D01A605A6922F0ED
:1018E00007021143DAB22E485961103AA0FB0212E6
:1018F00012092C4923F47F73895CE16523F003030B
:10190000032A88BF04333F228A4001250021A365B2
:1019100008469A60616584F83550F8BD032320229B
:101920006265184684F83530F8BD0120F8BDD4E969
:101930000B0101430A43A56A1A605A6945F0040184
:1019400022F0070211430028CCD07EB1B6F5005F2B
:1019500016D0022D03D9032DC4D1C201C2D5012353
:1019600040226265184684F83530F8BD012D03D059
:10197000F3D3022DB6D1F0E7B0F1C07FB2D1EEE7DC
:10198000032DAFD801A252F825F000BF5F1900085F
:101990005B1900085F190008791900083F8010F0F2
:1019A000ABAAAAAA4872000870B490F83440012C7F
:1019B00025D090F835400125AC4280F8345018D13C
:1019C00004680226002580F835604565256886682C
:1019D00025F48025402E256063600BBFA260A160C6
:1019E000E160E260236843F001032360002070BCE3
:1019F0007047002380F8343070BC0220704702200A
:101A000070BC7047F0B490F83440012C39D090F895
:101A10003540866D0125AC4280F834502BD10468E6
:101A20000227002580F8357045652568876825F40C
:101A30008025402F256063600ABFA260A160E1603D
:101A4000C16D18BFE2603F238B40026CB360236816
:101A500043F016032360636943F0800363611AB1A6
:101A6000236843F008032360236843F001032360E5
:101A70000020F0BC7047002380F83430F0BC022016
:101A800070470220F0BC704790F83530022B03D02D
:101A900080234365012070470268052380F83530B4
:101AA000136823F00103136000207047F0B583B082
:101AB0000023876D0193C36D3D68654908229A40F4
:101AC0002A4204460E6803D001680868400759D4CA
:101AD00001229A402A4203D021684969080674D439
:101AE00004229A402A4203D021680968890766D4F3
:101AF00010229A402A4203D02168086800074BD47C
:101B000020229A402A4214D021680868C00610D5C5
:101B1000BA6094F83520052A63D00B6813F4802F3F
:101B20000B687ED0190340F18980E36B0BB120462E
:101B30009847636D23B3636DDA071AD505232268CE
:101B400084F835301368434923F00103A1FB0616DE
:101B50001360B60A02E01368DB0704D5019B01336A
:101B6000B3420193F7D90022012384F8342084F88A
:101B70003530E36C23B1204603B0BDE8F040184790
:101B800003B0F0BD086820F004000860BA60626D20
:101B900042F0010262659BE7BA600A6812F4802F86
:101BA0000A6818D1D20503D40A6822F008020A6034
:101BB000226C002AA4D020469047E36DA0E7BA60CB
:101BC000626D42F00402626592E7BA60626D42F0B3
:101BD0000202626584E71103EAD5A26C002AEAD109
:101BE0008EE70A68206C22F016020A604A6922F029
:101BF00080024A6138B30A6822F008020A603F2274
:101C0000216D02FA03F300200122BB6084F8340046
:101C100084F835200029B3D0204603B0BDE8F04059
:101C2000084713F4807380D10A68012022F0100263
:101C30000A6084F8343084F8350076E7636C002B52
:101C40007FF475AF75E7A26C002AD4D1D7E700BF47
:101C500028000020B5814E1B2DE9F04FDFF860C24F
:101C6000DFF86082D1F800E083B0002503E00135A1
:101C7000102D00F0A4800123AB400EEA0304A34220
:101C8000F5D14E6826F0100ABAF1020F00F09A80E2
:101C90004FEA45090322D0F800B002FA09F2D24314
:101CA00006F0030702EA0B0B07FA09F70AF1FF3AFD
:101CB00047EA0B07BAF1010F076040F2A980C76835
:101CC0008B683A4003FA09F31343C360F300CED59F
:101CD00000230193D8F8443043F48043C8F84430DB
:101CE000D8F8443025F0030202F1804203F4804327
:101CF00002F59C32019305F00307019BD2F808908E
:101D0000BF000F23BB4029EA030A674B98422ED03D
:101D100003F58063984200F08E80644B984200F097
:101D20009180634B984200F09480624B984200F09F
:101D30009780614B984200F0A180604B984200F080
:101D4000A480DFF88491484500F09180DFF87C9111
:101D5000484500F0A180DFF8789148450CBF4FF06E
:101D600009094FF00A0909FA07F74AEA070AC2F80F
:101D700008A0DCF80030E243F70354BF13402343CC
:101D8000CCF80030DCF80430B70354BF13402343D1
:101D9000CCF80430DCF80830F70254BF134023437A
:101DA000CCF80830DCF80C30B60205F1010554BF60
:101DB00013402343102DCCF80C307FF45CAF03B0FC
:101DC000BDE8F08F4FEAD50900EB890905F0070758
:101DD000D9F82020BF004FF00F0B0BFA07FB22EAC7
:101DE0000B0A0A69BA4042EA0A02C9F820204FEAFF
:101DF00045090322D0F800A002FA09F2D24306F006
:101E000003070AEA020A07FA09F747EA0A0707601E
:101E1000876807EA020ACF6807FA09F747EA0A075C
:101E20008760D0F804A0C6F300172AEA0303AF4086
:101E30001F43476043E74FF0010909FA07F74AEAF1
:101E4000070A94E74FF0020909FA07F74AEA070A76
:101E50008DE74FF0030909FA07F74AEA070A86E710
:101E60004FF0040909FA07F74AEA070A7FE74FF03B
:101E7000070909FA07F74AEA070A78E74FF0050960
:101E800009FA07F74AEA070A71E74FF0060909FA63
:101E900007F74AEA070A6AE74FF0080909FA07F75D
:101EA0004AEA070A63E700BF000002400008024058
:101EB000000C0240001002400014024000180240D2
:101EC000003C014000380240001C0240002002405B
:101ED0000024024002B909048161704743695940F6
:101EE00041617047002800F02081F0B50368DD07EC
:101EF00083B004462FD5A8498A6802F00C02042A50
:101F000000F0AE808A6802F00C02082A00F0A4807B
:101F10006368B3F5803F00F0AD80B3F5A02F00F00B
:101F20002C819D4D2A6822F480322A602A6822F48E
:101F300080222A60002B40F0A280FEF7F1FF0646C7
:101F400005E0FEF7EDFF801B642800F2E2802B68BD
:101F50009B03F6D423689F0739D41A0714D5636905
:101F6000002B69D08D4B8C4D01221A60FEF7D8FFF3
:101F7000064605E0FEF7D4FF801B022800F2C98068
:101F80006B6F9F07F6D52368590700F18680A26919
:101F9000D2B1814DA96801F00C01082949D0022A6B
:101FA0007F4A4FF00001116000F0F180FEF7B8FFAA
:101FB0002C46054605E0FEF7B3FF401B022800F261
:101FC000A88023689B01F6D4002003B0F0BD724ABC
:101FD000916811F00C0F25D0916801F00C010829CF
:101FE0001DD0E368002B00F0A2806E4B6A4D0122E9
:101FF0001A60FEF795FF064605E0FEF791FF801B8D
:10200000022800F286802B689807F6D52B68226993
:1020100023F0F80343EAC2032B6023689DE752686C
:102020005602DED45C4A1268950775D5E268012A2B
:1020300072D0012003B0F0BD584A574D1360FEF72F
:102040006FFF064604E0FEF76BFF801B022860D896
:102050006B6F9807F7D496E74A6850027FF558AF40
:102060004D4A126891037FF576AF6268002A7FF4CB
:1020700072AFDEE7484A136843F480331360FEF71B
:102080004FFF454D064604E0FEF74AFF801B6428DB
:102090003FD82B689A03F7D55CE73F4B424D0022AF
:1020A00001921A6C42F080521A641B6C03F0805348
:1020B0000193019B2B6843F480732B60FEF730FF84
:1020C000064604E0FEF72CFF801B022821D82B686F
:1020D000DA05F7D5A368012B3AD0052B00F08E80E6
:1020E0002D4D2A6F22F001022A672A6F22F0040286
:1020F0002A67002B31D1FEF713FF41F288360746DD
:102100002B6F98077FF543AFFEF70AFFC01BB04265
:10211000F6D9032003B0F0BD1F4920690A6822F0F8
:10212000F80242EAC0020A6017E7012070471D4A20
:10213000194D1360FEF7F4FE064604E0FEF7F0FECC
:10214000801B0228E5D82B689907F7D4236804E799
:10215000114A136F43F001031367FEF7E1FE0E4DC2
:10216000074641F288362B6F9B073FF510AFFEF70D
:10217000D7FEC01BB042F6D9CBE7074B1A6842F432
:1021800080221A601A6842F480321A6077E7FEF7FC
:10219000C7FE06460FE000BF00380240800E4742EF
:1021A000600047420000474200700040FEF7B8FE62
:1021B000801B0228ADD82B689901F7D4D4E90736E3
:1021C000D4E90902E16A124C334343EA801352080E
:1021D00043EA0163013A0F4943EA024301226B607B
:1021E0000A60FEF79DFE054604E0FEF799FE401BDF
:1021F00002288ED823689A01F7D5E5E6044B1A6FBA
:1022000042F004021A671A6F42F001021A67A4E74B
:102210000038024060004742174908B58B6803F058
:102220000C03042B1BD0082B17D14A684B6813F4FE
:10223000800302F03F0214D149681048C1F38811AD
:10224000A1FB0001FEF7CAFC0B4B5B68C3F3014323
:1022500001335B00B0FBF3F008BD084808BD084837
:1022600008BD4B680648C3F38813A3FB0001002395
:10227000FEF7B4FCE8E700BF003802400024F40099
:10228000001BB70060B1484A136803F00F038B428C
:1022900008D2CBB21370136803F00F038B4201D046
:1022A0000120704703682DE9F0419D0714D55C07B4
:1022B00004D53E4CA26842F4E052A2601A0704D54D
:1022C0003A4CA26842F46042A260384C8568A26829
:1022D00022F0F0022A43A260DF0704460D4622D511
:1022E0004268012A56D0931E012B304B1B6858D9E7
:1022F000990725D52D4EB36823F003031343B3602C
:10230000FEF70EFE41F28837804605E0FEF708FE34
:10231000A0EB0800B84242D8B368626803F00C032F
:10232000B3EB820FF2D1204A136803F00F03AB42E4
:1023300009D9EBB21370136803F00F03AB4202D05C
:102340000120BDE8F08123685A0706D51749E068E7
:102350008A6822F4E05202438A601B0711D4FFF717
:102360005BFF124B12499B68124AC3F30313CB5C09
:1023700020FA03F30020136002F0B8F80020BDE853
:10238000F0810A4A2169936823F4604343EAC10358
:102390009360E4E7054B1B689E03ABD4D0E70320B2
:1023A000EDE79801A6D4CBE7003C0240003802409C
:1023B0006072000828000020044B054A9B6805490C
:1023C000C3F382230868D35CD840704700380240CA
:1023D0007072000828000020044B054A9B680549DC
:1023E000C3F342330868D35CD840704700380240DA
:1023F00070720008280000200E4B0F2202609A68BD
:1024000002F0030242609A6802F0F00282609A6869
:1024100002F4E052C2609B68DB0810B403F4E0539E
:10242000054C036123685DF8044B03F00F030B6058
:10243000704700BF00380240003C02402DE9F041E7
:1024400080460F4616461D46D8F8004001E06B1C3A
:102450000AD1A06837EA00030CBF012000208642A1
:10246000F5D10020BDE8F0813DB1FEF759FD069B96
:10247000C01AA842E8D3D8F800406368D8F804200E
:1024800023F0E003B2F5827F636015D0D8F82830DE
:10249000B3F5005F08D123684DF6FF721340236047
:1024A000236843F4005323600122002388F851205D
:1024B00088F850300320D5E7D8F80830B3F5004F3E
:1024C00002D0B3F5806FE1D1236823F0400323608D
:1024D000DCE700BF2DE9F043044685B0012084F815
:1024E0005000164699460F460C9DFEF719FD94F8CC
:1024F00051306268DBB2012B804611D0B2F5827F89
:1025000009D002200122002384F8512084F85030A1
:1025100005B0BDE8F083A1680029F2D1042BF0D109
:10252000002F60D0002E5ED0B9F1000F5BD094F880
:1025300051302168012B04BF052384F8513000235A
:102540006365A4F83E90A4F836900868A663400638
:10255000A4F83C902763A4F83490C4E9103344D520
:10256000E368B3F5006F45D0002A71D117F8013B3D
:102570000B73E38E013B9BB2E3864FF00109E38EC0
:102580009BB21BB9E38F9BB2002B41D0B9F1000F76
:102590000FD0E38E9BB263B123689A68910708D588
:1025A0003A781A73E38E013B9BB20137E3864FF012
:1025B0000009E38F9BB263B123689A68D20708D5FC
:1025C000DB683370E38F013B9BB20136E3874FF04A
:1025D00001096B1CD3D0FEF7A3FCA0EB08008542D9
:1025E000CDD803208EE701208CE70B6843F0400331
:1025F0000B60B5E7002A5CD0E38E9BB2012B58D06C
:102600004FF00109E38E9BB23BBBE38F9BB223BB30
:10261000CDF800802B46012202212046FFF70EFF55
:102620000028DED10246CDF800802B4680212046CE
:10263000FFF704FF002844D1A368002B7FF462AFAA
:1026400023680390DA6803929B680393039B59E71E
:10265000E38E9BB2012B90D188E7B9F1000F0FD028
:10266000E38E9BB263B123689A68910708D537F867
:10267000022BDA60E38E013B9BB2E3864FF0000948
:10268000E38F9BB263B123689A68D20708D5DB68F1
:1026900026F8023BE38F013B9BB2E3874FF0010931
:1026A000681CAFD0FEF73CFCA0EB08008542A9D81F
:1026B00097E737F8023BCB60E38E013B9BB2E386A2
:1026C0009EE7636D2022134363650120626519E76D
:1026D00010B490F85040012C03D05DF8044BFFF784
:1026E000F9BE02205DF8044B704700BF0368DA684A
:1026F00042F00102DA601A6842F001021A6000201A
:10270000704700BF03680122186A02FA01F120EA4B
:10271000010010B418621A6A0A4C1143A3421962EC
:102720000AD0094A934207D01A685DF8044B42F078
:10273000010200201A6070475A6C42F400425A6449
:10274000F2E700BF0000014000040140FFF7DABFDC
:10275000F8B590F83940E4B2022C37D090F83940FF
:10276000E4B2012C2BD00E46054604680C2E16D878
:10277000DFE806F0071515153D1515154C1515154F
:102780002E00006A29492A4FC163C76404F134014D
:10279000FFF738F92C68E36843F40073E360226ABA
:1027A000012303FA06F122EA01022262236A194395
:1027B0002162236843F0010323600020F8BD1AB1B1
:1027C000022480F83940CEE7002BF9D02046F8BD2E
:1027D000C06A1649164FC163C76404F14001FFF790
:1027E00011F92C68E36843F48053E360D7E7406A4B
:1027F0000E490F4FC163C76404F13801FFF702F9B6
:102800002C68E36843F48063E360C8E7806A0749A3
:10281000074FC163C76404F13C01FFF7F3F82C686C
:10282000E36843F40063E360B9E700BF39280008B8
:10283000F9290008704700BF10B5846B226A012394
:10284000824284F839300FD0636A83421BD0A36A76
:10285000834210D0E36A834205D0204600F064FE34
:102860000023237610BD08232376204600F05CFE6B
:102870000023237610BD04232376204600F054FE67
:102880000023237610BD02232376204600F04CFE61
:102890000023237610BD00BF704700BF704700BF04
:1028A00003681A69910710B5044602D5DA689207E1
:1028B0005FD41A69500702D5DA68510746D41A69FD
:1028C000120702D5DA6810072ED41A69D20602D58B
:1028D000DA68D00618D41A69D10702D5DA68D207A7
:1028E0005DD41A69100602D5DA6811065FD41A6938
:1028F000520602D5DA68500661D41A69910602D5EB
:10290000DA68920643D410BD6FF010021A61DB69D9
:10291000082213F4407F2276204664D000F004FEA3
:10292000002223682276D6E76FF008021A61DB697D
:10293000042299072276204652D1FFF77BFF2046DA
:10294000FFF7AAFF002223682276BEE76FF0040299
:102950001A619B69022213F4407F227620463CD103
:10296000FFF768FF2046FFF797FF002223682276D3
:10297000A5E76FF002021A619B6901229B070276AC
:1029800025D000F0D1FD00222368227691E76FF078
:10299000200220461A61BDE8104000F0C1B96FF076
:1029A00001021A61204601F079FD236899E76FF072
:1029B00080021A61204600F0B5F9236897E76FF0AE
:1029C00040021A612046FFF769FF236895E7FFF789
:1029D00031FF2046FFF760FFD5E700F0A5FDC4E713
:1029E00000F0A2FDAEE7FFF725FF2046FFF754FFFA
:1029F00096E700BF704700BF08B5806B012380F8E1
:102A00003930FFF7F7FF08BD70B4314D03688C68AB
:102A10000A68A8424FD0B0F1804F29D0A5F57C4577
:102A2000A84234D005F58065A84230D005F5806510
:102A3000A8422CD005F57845A84228D005F5705558
:102A4000A84213D005F58065A8420FD005F5806532
:102A5000A8420BD0A5F59835A84207D005F58065AA
:102A6000A84203D005F58065A84209D1C96804E0F1
:102A70004D68C96823F070032B4323F440730B4364
:102A80000360C46282620123436170BC70474D6879
:102A9000CE6823F070032B430E4D23F44073334371
:102AA000A8420360C4628262EDD10B690363012313
:102AB000436170BC70474E68CD6823F070033343A8
:102AC00023F440732B430360C4628262EDE700BFCE
:102AD0000000014000040140B8B190F8393010B551
:102AE00003F0FF0204465BB1022384F8393020680A
:102AF000211DFFF789FF012384F83930002010BD24
:102B000080F8382001F018FEEEE70120704700BF82
:102B1000B8B190F8393010B503F0FF0204465BB14C
:102B2000022384F839302068211DFFF76DFF01234F
:102B300084F83930002010BD80F8382001F01CFEE8
:102B4000EEE70120704700BF70B4046A1B4E24F00A
:102B5000010404628469056AB04224F003041DD0B4
:102B6000B0F1804F1AD0A6F57C46B04216D006F5DB
:102B70008066B04212D006F58066B0420ED006F5EF
:102B80007846B0420AD006F57056B04206D0A6F597
:102B90009436B04202D044F0010200E022431B010F
:102BA00025F00A04DBB222F0F00201F00A01214311
:102BB0001343836170BC0162704700BF0000014095
:102BC000F8B590F83830012B64D00D460223164634
:102BD000012280F8382080F839300446D1E900120B
:102BE0000068EB6856B3042EAD6833D0082E066A31
:102BF00052D026F480560662C669076A26F44076EB
:102C00001B03090346EA02229BB201F4204122F48D
:102C1000704227F4204713433943C3610162C369FB
:102C200023F44063C361C36943EA0525C5610123F9
:102C3000002084F8393084F83800F8BDFFF784FFAD
:102C40002368A868996921F00C0199619A69024387
:102C50009A61ECE7066A26F0100606628669076A42
:102C600026F440761B03090146EA02229BB201F0DA
:102C7000A00122F4704227F0A0071A433943826171
:102C80000162836923F440638361836943EA052514
:102C90008561CCE70220F8BD26F480760662C6691D
:102CA000076A26F003061B0109023243DBB201F476
:102CB000206122F0F00227F420671A433943C261F1
:102CC0000162C36923F00C03C361C3691D43C5617D
:102CD000ADE700BF90F83830012B1ED0024602202D
:102CE000136870B482F839005C6824F07004D1E98C
:102CF00000565C60586828435860986820F080004F
:102D0000986099680024012531439960204682F833
:102D1000395082F8384070BC70470220704700BFBD
:102D2000704700BF704700BF026811692DE9F84382
:102D3000C568836821F44051044629430069116144
:102D4000D16865690343E06921F416412B4321F002
:102D50000C0103430B43D3605369A16923F440730F
:102D60000B43B0F5004F53619B4B00F09A809A42A1
:102D700059D003F580639A4255D0FFF71DFB974F5A
:102D8000636800EB800000EB80009B00B0FBF3F376
:102D9000A7FB03235B091D01FFF70EFB666800EB31
:102DA000800000EB8000B600B0FBF6F6FFF704FBF6
:102DB000636800EB800000EB80009B00B0FBF3F346
:102DC000A7FB03235B094FF0640909FB13631B0195
:102DD0003233A7FB03235B0903F0F006FFF7ECFA9D
:102DE000626800EB800000EB80009300B0FBF3F81A
:102DF000FFF7E2FAD4E9002300EB80009B0000EB30
:102E00008000B0FBF3F0A7FB0030400909FB108302
:102E10001B013233A7FB0313C3F3431333432B4488
:102E20009360BDE8F883FFF7D7FA6C4F636800EB57
:102E3000800000EB80009B00B0FBF3F3A7FB0323B3
:102E40005B091D01FFF7C8FA666800EB800000EB24
:102E50008000B600B0FBF6F6FFF7BEFA636800EB41
:102E6000800000EB80009B00B0FBF3F3A7FB032383
:102E70004FF064095B0909FB13631B013233A7FBA5
:102E800003235B0903F0F006FFF7A6FA626800EB84
:102E90008000930000EB8000B0FBF3F8FFF79CFA92
:102EA000A8E79A4259D003F580639A4255D0FFF7BC
:102EB00083FA4A4F636800EB800000EB80005B0000
:102EC000B0FBF3F3A7FB03235B091E01FFF774FAC2
:102ED000656800EB800000EB80006D00B0FBF5F54D
:102EE000FFF76AFA636800EB800000EB80005B008C
:102EF000B0FBF3F3A7FB03235B094FF0640909FB65
:102F00001353DB003233A7FB03231B0903F4F875CB
:102F1000FFF752FA626800EB800000EB800053007C
:102F2000B0FBF3F8FFF748FAD4E9002300EB800088
:102F300000EB80005B00B0FBF3F3A7FB03135B091E
:102F400009FB1383DB003233A7FB0313C3F34213E4
:102F500033442B449360BDE8F883FFF73DFA1F4FDD
:102F6000636800EB800000EB80005B00B0FBF3F3D4
:102F7000A7FB03235B091E01FFF72EFA656800EB30
:102F8000800000EB80006D00B0FBF5F5FFF724FA40
:102F9000636800EB800000EB80005B00B0FBF3F3A4
:102FA000A7FB03234FF064095B0909FB1353DB0004
:102FB0003233A7FB03231B0903F4F875FFF70CFA60
:102FC000626800EB8000530000EB8000B0FBF3F878
:102FD000FFF702FAA8E700BF001001401F85EB5180
:102FE0002DE9F04107460E4690461D463C6801E03B
:102FF0006B1C06D1206836EA0003F9D10020BDE839
:10300000F08135B1FDF78CFFA0EB08008542EDD2D1
:103010003C68E36823F4D073E3606369202223F003
:10302000010300216361032087F8392087F83810F5
:1030300087F83A20E3E700BF60B338B590F839303D
:10304000044603F0FF0203B32268242384F83930D6
:10305000D36823F40053D3602046FFF765FE23684E
:103060001A6922F490421A615A6922F02A025A61BE
:10307000DA680025202142F40052DA602846E56330
:1030800084F8391084F83A1038BD80F8382001F0FF
:10309000FBFBD9E7012070472DE9F0430F4690F87C
:1030A0003910202983B02DD187B3019272B398468D
:1030B00090F83830012B044624D00023C36301214B
:1030C000212380F8381080F83930FDF729FF019A64
:1030D000A2848146E284E58CADB243464A46802113
:1030E000204655B3E58CA668013DADB2B6F5805FCC
:1030F000E5840FD0FFF774FFE8B923683A785A6087
:103100000137E8E7022003B0BDE8F083012003B0F7
:10311000BDE8F08343464A4680212046FFF760FF22
:1031200048B93B8821682269C3F308034B60002A31
:10313000E6D10237CFE70320E5E74021FFF750FF54
:103140000028F8D1202384F8380084F83930DAE7F1
:1031500090F83A30202B1CD1E9B1E2B190F8383028
:10316000012B16D030B400230468C2852225C36326
:1031700080F83A506569828545F00105816280F8E2
:1031800038306561E26842F490721846E26030BC03
:103190007047022070470120704700BF704700BF92
:1031A00010B584680169836A0268B4F5805F1CD039
:1031B0005C1C52688462A9B91A70C38D013B9BB232
:1031C000C3856BB90268D16821F49071D1605169EF
:1031D000202421F00101516180F83A4001F0DAF831
:1031E000002010BD02F07F02E6E7526829B9C2F361
:1031F000080223F8022B8362DFE7D2B223F8012B07
:103200008362DAE7704700BF03681A6870B5160773
:10321000DD68596904464AD011F001011E464FD0BD
:10322000D00705D5EB0503D5E36B43F00103E3635A
:10323000500702F0020375D561B1E16B41F0020164
:10324000E16302F00801002B71D119B1E36B43F087
:103250000803E363E36B002B31D0900601D5A90688
:1032600071D47569E26B120702D415F0400577D06E
:10327000F36823F49073F3607369202223F0010351
:10328000736184F83A2073695B0658D57369606B83
:1032900023F040037361002851D03A4B0365FEF7D9
:1032A000F3FB60B1606BBDE87040036D1847910699
:1032B00009D5AE0607D590F83A30222B4CD070BD18
:1032C00015F4907FACD116060ED45106F7D56A06D8
:1032D000F5D5DA68202122F04002DA60204684F831
:1032E0003910FFF75BFF70BD2806EED594F8392042
:1032F000212AE4D1A168226AB1F5805F35D0511C42
:10330000216212785A60E28C013A92B2E284002A79
:10331000D5D1DA6822F08002DA60DA6842F0400241
:10332000DA6070BD43B1002994D002F00801E36B6C
:1033300043F00403E36388E713078BD585E7204652
:10334000FFF760FF70BD94F83A30222B89D12046F8
:10335000FFF726FF266884E7BDE87040FFF720BF2F
:103360002046FFF74FFFE56370BD11882069C1F368
:103370000801596010B902322262C4E701322262A8
:10338000C1E700BF8933000808B5836B0022DA85E6
:103390001846DA84FFF736FF08BD00BF70B54A78DB
:1033A0000B78304C304D43EA0223C3F30A03A3F5F4
:1033B000806303808B784A785B0143EAD203C3F3CE
:1033C0000A03A3F5806343800B79CE788A789B0249
:1033D00043EA860343EA9213C3F30A03A3F5806327
:1033E00083804B790A79DB0143EA5203C3F30A0372
:1033F000A3F58063C3804A7C0B7C43EA0223C3F3BA
:103400000A0303814B799B0983724B79C3F3011340
:10341000C372CA798B7943EA022383814A7A0B7A91
:1034200043EA0223C381CA7A8B7A43EA02230382E6
:103430000B7B83744B7BC374CA7B8B7B43EA022375
:103440008382FDF76DFD23682860C01AB0F5FA7F0E
:1034500000D870BD80210548FEF740FD2B68236031
:1034600070BD00BF2C02002030020020001002407E
:10347000024B187D00F00100704700BF24040020BB
:10348000024B988AC0F38000704700BF24040020DC
:10349000024B988AC0F34000704700BF240400200C
:1034A000024B988AC0F3C000704700BF240400207C
:1034B000044A054B908A00F002021A80C0F3801083
:1034C000704700BF2404002034020020024B988A79
:1034D000C0F3C010704700BF24040020054BB3F9AF
:1034E0000C202AB9B3F90E00003018BF0120704734
:1034F0000120704724040020094B9FED0A7AB3F99C
:103500000C3007EE903AF8EEE77AF4EEC77AF1EE77
:1035100010FAD4BF87EE870AB7EE000A704700BFE3
:103520002404002000003143184B5A881988531A8C
:10353000002BDCBF02F51C52103270B5D8BF531AF5
:10354000134D144C144E1BB22B80FDF7E9FCB5F95A
:10355000003012492268A3F57A654FF4257303FB06
:1035600005F381FB0351821ADB170D4DC3EB2123B9
:10357000B2F5FA7FF380286000D870BD8021094839
:10358000FEF7ACFC2B68236070BD00BFF008002084
:10359000200400202C02002024040020D34D6210BF
:1035A000300200200010024038B5104B104A1A605B
:1035B00003224FF400254FF4401401215A601846AD
:1035C0000022C3E90454D961C3E902229A61C3E924
:1035D0000822C3E90A22FDF735FD00B938BD2F21C5
:1035E0000448BDE8384000F063BF00BF3C04002041
:1035F000006400405072000870B502681F4B88B02C
:1036000000249A42CDE90344CDE90544079401D052
:1036100008B070BD03F5EA3301941A6C184842F003
:1036200000721A641A6C02F000720192019A0294FC
:103630001A6B42F008021A631B6B03F00803029333
:1036400003A9032309220225039306930792029EEE
:103650000495FEF701FB224621461320FEF7C6F82B
:103660001320FEF7F9F8224621461420FEF7BEF893
:103670001420FEF7F1F808B070BD00BF00640040F0
:10368000000C0240034B1A68536943F00203536174
:10369000704700BF3C04002010B582B000240F4BDF
:1036A00001941A6B42F480021A631B6B03F48003CB
:1036B0002246214601933A20019BFEF797F83A20D3
:1036C000FEF7CAF8224621464520FEF78FF845202E
:1036D00002B0BDE81040FEF7BFB800BF003802409E
:1036E000F0B500248DB0CDE90744CDE90944354B50
:1036F00001940B941A6B344E344D42F001021A635C
:103700001A6B02F001020192019A02941A6B42F0C4
:1037100002021A631A6B02F002020292029A0394E6
:103720001A6B42F008021A631A6B02F00802039245
:10373000039A04941A6B42F080021A631A6B02F027
:1037400080020492049A05941A6B42F010021A63E4
:103750001A6B02F010020592059A06941A6B42F059
:1037600020021A631B6B03F02003069322463046A7
:103770004FF48041069BFEF7ADFB22462846802190
:10378000FEF7A8FB07A94FF48063114807930127B0
:10379000CDE90844FEF760FA304607A94FF48043AC
:1037A000CDE90737CDE90944FEF756FA802307A98A
:1037B0002846CDE908740A940793FEF74DFA0DB038
:1037C000F0BD00BF0038024000140240001002406B
:1037D000000C02404FF07E530549064A80ED000A76
:1037E000C0ED050AC160026143608360704700BF9D
:1037F000000048430000FA4370B5002394B0CDE9BF
:103800000A33CDE90C33CDE90433CDE90633204941
:1038100001930393086C1F4A40F080500864096CC0
:1038200001F08051019101990293136843F44043E0
:103830001360136803F44043029301224FF4803372
:103840004FF480000224062108920993A822042341
:103850000F9008A8029D0E941294CDE910121393B4
:10386000FEF740FB00B1FEE703460F264FF4A055DC
:103870004FF4805203A80521049405930396CDE9E3
:103880000652FEF7FFFC00B1FEE714B070BD00BFAA
:1038900000380240007000402DE9F04F2DED028B02
:1038A00085B0FDF71BFBFFF7A7FFFFF719FFFFF739
:1038B000F3FEFFF779FE00F0C3FF00F0D5FECD4820
:1038C000DFEDCD8A01F054F90021CA48FDF73EFD35
:1038D0006422CA49CA4801F097F80122C949CA4876
:1038E000FFF736FC0223C94AC9480421FEF730FF1E
:1038F0000021C848FEF72AFF0421C648FEF726FF2C
:103900000821C448FEF722FF0C21C248FEF71EFF23
:103910000021C148FEF71AFF0421BF48FEF716FF39
:103920000821BD48FEF712FF0C21BB48FEF70EFF31
:10393000BA4B4FF4FA5B03F5C8761D461C464FF0B0
:103940000008204601F0FCFDCDE9008BDFEDAA1A4E
:10395000A76D2046F0EE610AB6EE002AB1EE081A15
:10396000B2EE040A41F288334FF4804201216434FC
:10397000B847A642E5D1AA48AA4EDFF8EC92AA4F72
:10398000DFF8E8A29FEDA98A01F0DAFDA84801F06E
:10399000D7FDA84801F0D4FD304601F0D1FDA6487E
:1039A00001F0CEFDA54801F0CBFDA54801F0C8FD12
:1039B000A44801F0C5FD484601F0C2FD9C49CDF880
:1039C00004B0CDF80080DFED8C1A8A6D47F23053D9
:1039D000F0EE610AB0EE610A144608461A46B3EEEC
:1039E0000E2AB2EE0E1A0021A047974B90491A6892
:1039F0000292DDED027A954A0B6E92ED040AF8EE22
:103A0000E77A0846C1ED017A98478A49CDF804B0B3
:103A1000CDF800809FED782A886D9FED8D1A47F2D2
:103A20003053F0EE421AF0EE420AB0EE420A04467B
:103A30001A4608460121A047844A7E49506B0B6E06
:103A4000029007EE900AC1ED018AB8EEE70A084637
:103A50009847DFED691A7948CDF800804FF4FA6194
:103A600040F2DC530191F0EE610A1A469FED792A8B
:103A7000846DB3EE0E1AB8EE000A0021A047724B17
:103A8000724A19680291DDED027A6C4992ED040ADE
:103A90000B6EF8EEE77A0846C1ED017A984768495F
:103AA000CDF804B0CDF800809FED532A886D9FEDCE
:103AB0006A1A47F23053F0EE421AF0EE420AB0EEC4
:103AC000420A04461A4608460121A0475F4A5B495C
:103AD000B2F900000B6B5A4900EE100A4B60084621
:103AE0000B6EB8EEC00A0C4698475C48C4ED018ADC
:103AF0000268DFED411A5149CDE9008B47F230539E
:103B0000F0EE610AB0EE610A4A6048461A46B2EE2B
:103B10000E2AB0EE081AD9F858400021A0474A4BA7
:103B20004A4A196892ED040AD9F86030029107EE0A
:103B3000901AF8EEE77A4846C9ED017A9847384975
:103B4000CDF80080DFED2C1A886D9FED491A41F207
:103B50008839F0EE610AB0EE610A0446B1EE082A37
:103B600008464B464A460021CDF80490A047364B04
:103B70002B491B680293DDED027A344A0B6E92EDFD
:103B8000040AF8EEE77A0846C1ED017A98474FF447
:103B9000FA63CDE90083DFED181A9FED2F2AB46D8B
:103BA000F0EE610AB3EE0E1A4FF47A7200214B4622
:103BB0003046B8EE000AA04729482A4B90ED040A87
:103BC0001B6873603046336EB1EE400A98479FED34
:103BD0000A2A1949CDF804B047F23053CDF80080D5
:103BE000F0EE421AF0EE420AB0EE420A1A468C6D2E
:103BF00040E000BF3C040020000000007C0C0020DE
:103C0000400D0020C0090020800D0020F008002099
:103C1000040C0020400C00202C0B0020D0050020BC
:103C2000C4090020280A0020580200200000FA459C
:103C30006C05002060080020F408002058090020CE
:103C40008C0A0020A004002024000020540E002034
:103C50000000F042000070420000A0421800002066
:103C60000C0E002050020020080500202404002033
:103C7000000048421FED021A08460121A047BA4839
:103C8000D6ED0C7AB949406B0B6E0290F1EE677A73
:103C9000C1ED017A07EE900A0846B8EEE70A9847A8
:103CA000B348CDF804B0CDF800809FEDB22A806D06
:103CB000DFEDB11A4B46F0EE420AB7EE081A0121C9
:103CC0000446B2EE040AAA484FF4FA52A047AB4A9F
:103CD000DFEDAB0AB2F90020AA4800EE102AB8EED8
:103CE000C00AFFF777FDA149DFEDA70A91ED0C0AA5
:103CF000A648FFF76FFD01F053FA01F09BFAA44AC2
:103D0000A44B12680292DDED027AA34AA3491A631A
:103D1000F8EEE77A9A623B68C1ED007A002B00F07A
:103D2000ED8100233B60FDF7FBF89D4B1B68C01A3B
:103D3000B0F5FA7F6DD8BAF90630BAF80410BAF9BE
:103D400000B04EF2C000C3EB431211FB00F103EBD5
:103D5000820213FB00F39348920180FB024E80FB2A
:103D6000034C80FB0140C917C1EB2021D2178E48BC
:103D7000C2EB2E220260DB178C4AC3EB2C231360AC
:103D80008B4BCBF100001960FCF78CFB0022894BB8
:103D9000FCF7F2FB0022884BFCF718FDFCF7CEFE87
:103DA000864B1860864B1868FCF77CFB80465846AB
:103DB0008946FCF777FB0022824BFCF7DDFB0022F3
:103DC0007D4BFCF703FD02460B4640464946FCF797
:103DD0001BFAFCF7B3FE7C4B1860BAF90200FCF743
:103DE00061FB0022794BFCF7C7FB0022724BFCF70A
:103DF000EDFC674B804618688946FCF753FB0B4681
:103E0000024649464046FCF701FAFCF797FE634B31
:103E10001860FFF763FB002840F08F81FFF728FB55
:103E200010B1624A6A4B1360FFF732FB18B15F4A68
:103E30004FF4C8631360FFF723FB18B15C4A4FF4DB
:103E4000C8631360FFF72CFB10B1594A604B136035
:103E5000FFF72EFB10B1594A5E4B1360FFF736FB9C
:103E600010B1564A5C4B13609AF80A30022B00F0EE
:103E70004881032B00F0AE81012B00F04281574BAB
:103E80003E4A1B6892ED040A002B40F0C9814C4B5E
:103E90001A680292DDED027A514AF8EEE77A136E63
:103EA000C2ED017A104614469847344A236B1446F3
:103EB000526B0292DDED027A4A4AB8EEE70A53608D
:103EC0001046136E98473A4B3C491A68374BD1ED70
:103ED000007A1B683A4994ED040A0968D01806EE86
:103EE000900A9B1AF8EEE66A07EE103A76EEA75AA9
:103EF000B8EEC77A76EEE76A37EE876A77EE677ACA
:103F0000BDEEE57A143917EE102ABDEEC67AFDEE45
:103F1000E77A17EE103AFDEEE66A07EE101A32491C
:103F200052425B420A608B60C1ED017AC1ED036AC7
:103F30002E490022B8EEC77A0A632D4A81ED017A34
:103F400001231360DFED2B7AB4EEE70AF1EE10FAED
:103F500002DD294A01231360DFF88C90DFF89CB062
:103F6000DFF89C804EE000BF0C0E0020F40800201B
:103F7000A004002000000000CDCCCC3D540E002059
:103F80000000C842C408002000007A4480040020D9
:103F90001C000020D003002000C079445002002003
:103FA0003002002035064C635C02002064020020D1
:103FB000600200200040BF4000A084405402002066
:103FC0002400002000003440680200200000284047
:103FD000C0F9FFFF0000C8440000C8C44C02002024
:103FE000580900208C0A0020E0080020C4090020A5
:103FF000100000200000DC423C020020B002002043
:10400000D0050020F9EC017A3BF9483BF8EEE77A5D
:1040100000EE103AC8ED017AD8F860304046B8EEAC
:10402000C00A98476F4B994508F16408EAD16E4B76
:104030006E481A6872606E4A336E92ED040A144636
:104040009847626B0292DDED027A6A4A336B5360E5
:10405000B8EEE70A136E104698479AF80B80B8F14D
:10406000020F00F08E80B8F1030F00F0A280B8F1CB
:10407000010F16D1604B614A1B680293604BDDED66
:10408000027A5B6B0393F8EEE77A9DED037A136E89
:10409000C2ED017AB8EEC70A10469847594BC3F8EB
:1040A0000080594B1B68002B32D195ED0C7AD5ED71
:1040B000256A95ED3E6AD5ED577ABDEEC77AFDEEDD
:1040C000E66A17EE103ABDEEC66AFDEEE77A19B25F
:1040D00016EE903A17EE900A1AB216EE103A00B2A7
:1040E0001BB20090494800F005FE3B686BBB052001
:1040F000FCF71CFF3B68002B7FF413AE01233B60F1
:1041000011E6434B1B684FF4E1625A639A63B6E6CB
:10411000404A00231363374A2B6313633E4AC5F8B2
:1041200094301363354AC5F8F83000201363C5F89E
:104130005C31024603460146D3E7FFF7DDF9374B12
:1041400020EE480A83ED000A68E62C4B2F48D3ED99
:104150000C6A284B93ED0C7A2E4BD3ED0C7AFDEEC6
:10416000E66ABDEEC77AFDEEE77A16EE903A17EEF4
:10417000102A17EE901A1BB212B209B200F0DAFD43
:10418000B5E71D4B1D4A1B6802931D4BDDED027AFE
:104190005B6B0393F8EEE77A9DED037A136EC2ED45
:1041A000017A1046B8EEC70A9847164A01231360F1
:1041B00077E7134A526B0292DDED027A0F4A002331
:1041C00053601046136EB8EEE70A98470D4A002375
:1041D000136066E70E4B1B684FF47A725A639A635A
:1041E0004DE600BFF008002050020020280A002001
:1041F0000C0E0020F408002020000020A004002065
:10420000C40D00204C0200203C0200203C04002091
:104210002C0B00208C0A0020C4090020540200202E
:104220004E4B1B681BB14E4B4E4A1B6853604E4BA6
:10423000DFED4E7A93ED007AB4EE677AF1EE10FA84
:1042400000F08880464B93ED007AB4EE677AF1EE89
:1042500010FA7FD0464B1B6807EE903AF8EEE77AEB
:10426000FBEE046A30EE670AB4EEE60AF1EE10FAED
:1042700008D503F1140207EE902A3E4AF8EEE77AD9
:10428000C2ED017AF3EE047AB4EEE70AF1EE10FA29
:1042900007DD143B07EE903A364BF8EEE77AC3EDB4
:1042A000017A304B1C46B0EE470A20461B6E9847F9
:1042B000314BD4ED0C7A596B02913049F1EE677AAB
:1042C000C1ED017ADDED027A0B6E0846B8EEE70A21
:1042D0000C4698472749226B0B6E294925480A63EB
:1042E000254A92ED040A14469847264B21481A683D
:1042F000254BD0ED0C6A1B6894ED040AD11807EE2B
:10430000101A9B1A07EE903AB8EEC77AF8EEE77AE1
:1043100077EE665A37EEE66AFDEEE55ABDEEC66AFE
:1043200015EE902A194936EE877A76EEA77A524230
:1043300016EE103AFDEEE77ABDEEC77A0A60144A2F
:10434000C1ED017AF1EE666A5B42C2ED006A8B60F4
:1043500081ED037A014A00231360F3E51000002089
:10436000180000206C0500201400002000C07944D3
:1043700024000020C4090020540E00206008002002
:104380008C0A00206002002064020020E008002067
:104390005402002070B5364C2378FF2B35D0354AB7
:1043A000354D1278EA540133DBB2EA18237012F863
:1043B000013C0A2B06D001222E493048BDE870404E
:1043C000FEF7C6BE12F8023C0D2BF4D112F8033CE6
:1043D000212B28462FD101F0EAF851EC100BFCF705
:1043E000ADFB274B274E18600023194628464FF493
:1043F0008072237001F008F93368B3B1012B2BD020
:10440000032BDCBF01333360D5E7002319464FF49B
:1044100080721948237001F0F7F84FF6FF730E22EF
:1044200019491648FEF738FEC5E7FCF779FD174A2B
:1044300033681060E2E701F0BAF851EC100BFCF7BA
:104440007DFB134A00231060194628464FF4807202
:10445000237001F0D9F8AEE7FCF762FD0B4B0D4C71
:1044600019680D4A2060401A33681060C8E700BF21
:1044700036020020C009002060070020800D0020C7
:104480001800002038020020000000204402002014
:104490001400002048020020400200200268034B64
:1044A0009A4200D07047FCF733BD00BF00100040B7
:1044B000FEE700BF82B00C4B002100915A6C42F421
:1044C00080425A645A6C02F480420092009A019130
:1044D0001A6C42F080521A641B6C03F080530193F3
:1044E000019B02B0704700BF0038024030B5014662
:1044F00089B000223620FDF779F93620FDF7ACF9B6
:104500000025164B02951A6C154C42F010021A64E5
:104510001B6C03F0100301A9029303A8029BFDF793
:104520006BFFFDF749FF0F4A0F4925614300A2FBCE
:1045300003239B0C013B40F2E7322046C4E90135DE
:104540002160E260FEF7C8FA10B1012009B030BD69
:104550002046FEF7CBF809B030BD00BF003802405E
:10456000F00A002083DE1B4300100040704700BFAC
:10457000FEE700BFFEE700BFFEE700BFFEE700BFAB
:10458000704700BF704700BF704700BF704700BF53
:104590000148FDF713B800BF3C040020FFF7F8BF47
:1045A00010B5044C204600F03FFA2046BDE810400C
:1045B000FEF72ABE400D00200148FEF771B900BF8A
:1045C000F00A00200148FDF771BA00BFE00C00209E
:1045D0000148FDF76BBA00BFA40B00200C4A08B5D8
:1045E000136833B118446946884208D810601846E9
:1045F00008BD084B1360184469468842F6D900F09C
:10460000D9FF0C2303604FF0FF33184608BD00BFED
:104610006C020020440F00201049114BD1F8882073
:1046200042F4700210B4C1F888201A680D4C0020C2
:1046300042F001021A6098601A6822F0847222F433
:1046400080321A605C601A684FF0006422F48022A5
:104650001A60D8608C605DF8044B704700ED00E094
:10466000003802401030002410B5304B304A1A6038
:1046700086B00022092442F20F7118465C60C3E93B
:104680000221C3E90422FEF743FA002849D100239E
:1046900069462648CDE90033FEF71CFB00283BD1D4
:1046A000002302241A4602A920480293CDE90433CC
:1046B0000394FEF785FA50BB0A240123042202A9C1
:1046C0001A48CDE90243FEF77BFAD8B90822002345
:1046D0000DEB020115480293FEF772FA68B9022346
:1046E00002A90C2211480393FEF76AFA18B1692156
:1046F0001048FFF7DDFE06B010BD63210D48FFF73F
:10470000D7FEECE75D210B48FFF7D2FEDEE756212E
:104710000848FFF7CDFECFE74D210648FFF7C8FE5A
:10472000BEE746210348FFF7C3FEB0E7040C0020B4
:10473000000001407872000802680E4B9A4200D0D7
:10474000704700B583B0002203F50D330192196C58
:1047500041F0020119641B6C03F00203019311463E
:104760001D20019BFDF742F81D2003B05DF804EB0E
:10477000FDF772B8000400402B4B02689A4200D04B
:1047800070472DE9F04387B0002603F59C3300966F
:104790005A6C264C42F001025A645B6C039603F09B
:1047A0000103009301A94FF400734FF002094FF089
:1047B000010805461E48009A01934FF400570496DD
:1047C000CDF80890CDF81480FDF746FA01A91948F4
:1047D0000197CDE90296CDE90468FDF73DFADFF8CF
:1047E0005CC0A7614FF480614FF400624FF48073A6
:1047F0002046C4E90166E660C4E90866C4F800C062
:10480000C4E90412E361FDF735F830B9C5E908449D
:10481000AC62A56307B0BDE8F0834FF4A971064808
:10482000FFF746FEF2E700BF00000140A40B0020A6
:10483000000002400010024078720008A0640240AC
:1048400038B50D4B0D4A0E4D1A604FF480640022AE
:104850000C2118465D60C3E90441C3E90222C3E9A3
:104860000622FEF7E9FB00B938BD48210548BDE83E
:104870003840FFF71DBE00BF400D00200010014072
:10488000A08601008872000870B5374A0368934219
:1048900088B004D0354A934240D008B070BD00269D
:1048A000334B01965A6C334C42F010025A645B6CE5
:1048B00003F010030193C023022203930123019903
:1048C000049205930322072303A905462A4806926A
:1048D0000793FDF7C1F92949A6604FF000624FF434
:1048E00080632046E660C4E90566C4E9076666623F
:1048F000C4E900122361FCF7BDFF18B187212048ED
:10490000FFF7D6FD00226C6311462520A563FCF756
:104910006DFF2520FCF7A0FF08B070BD0024144BEC
:104920000294596C174841F0200159645B6C03F004
:104930002003029302214FF4844303220393049142
:10494000082303A901250793CDE90552029EFDF72F
:1049500083F9224621464720FCF748FF4720FCF711
:104960007BFF08B070BD00BF001001400014014083
:1049700000380240E00C0020000402404064024085
:10498000887200080018024070B590F83A40202C58
:1049900082B032D1002933D0002A31D090F838309B
:1049A000012B2AD004461346406BA3850A460126F4
:1049B000216884F8386000252226A262E56304316C
:1049C00084F83A600565FCF7EFFF236801951A68E3
:1049D00001925A680192019ADA6884F8385042F4D8
:1049E0008072DA605A6942F001025A615A692846B7
:1049F00042F040025A6102B070BD022002B070BDA8
:104A0000012002B070BD00BF10B40468E36843F039
:104A10001003E3605DF8044BFFF7B6BF0148FEF7F3
:104A2000F3BB00BF800D002002681368DB063DD594
:104A3000436B48491B688B4210B41468526839D0E4
:104A4000454A934251D0A2F56872934245D002F58F
:104A50008062934251D0A2F58962934258D002F508
:104A60008062934257D0A2F5687293424DD002F50E
:104A70008062934252D0A2F58962934251D002F5EE
:104A80008062934250D0A2F5687293424FD002F5F3
:104A9000806293424ED01A6801F5896122F00102CA
:104AA0008B421A6049D94FF000612BE0816A2B4894
:104AB000FEF774BC20211A6822F001021A60284A0D
:104AC0009160828D5A601A68816A5DF8044B2348B0
:104AD00042F001021A60FEF761BC20211A6822F040
:104AE00001021A601E4AD160EBE720211A6822F009
:104AF00001021A601B4A9160E3E720211A6822F044
:104B000001021A60174AD160DBE74FF40061E5E764
:104B10004FF40061CFE74FF40061E7E74FF4006125
:104B2000ECE74FF40011C6E74FF40011DEE74FF455
:104B30000011D3E74FF40011E0E70B4A934205D888
:104B40000A4A93424FF00061CCD8B8E74FF00061B9
:104B5000D0E700BF1060024010640240240400202F
:104B60000060024000640240B860024058600240A9
:104B700010B58AB0002301220E246946CDE9053321
:104B8000CDE90033CDE9023304930994CDE907223E
:104B90000446FCF7DDF9044B9C4203D1034A044B65
:104BA000C4E90C230AB010BD3C040020940200208C
:104BB0007002002070B54B6BC2698189C18142646B
:104BC0001D7D5A7D9FED227A044642EA05228069C6
:104BD000A2819E7DDD7D45EA062525801B8B5BBA83
:104BE0009BB207EE903AF8EEE77AF1EE046A67EED0
:104BF000A67A511A67EE877AB1F5805FC4ED017A23
:104C000020DC11F5805FBEBF013001F50051A061CD
:104C10006163A38A9FED0F7A216CE16302EB40325E
:104C2000D21A07EE902AF8EEE76AE261C6EE877ABA
:104C3000C4ED047AFCF774F9E369626C20649B1A92
:104C4000A36370BD0138A1F50051A0616163E0E785
:104C500000008038610BB64138B51F4D0446FCF7A3
:104C60005FF92B68C01AB0F5FA7F2CD8636B1B680C
:104C70006FF400729A18062A09D8DFE802F01919B1
:104C80001919140F040021461448FFF793FF144B21
:104C90001A68536943F00203536138BD2146114835
:104CA000FFF788FFF3E721460F48FFF783FFEEE7A2
:104CB000013BDBB20D4803EBC303214600EBC3000D
:104CC000FFF778FFE3E74FF480410948FDF706F965
:104CD000FCF726F92860C9E7C00D0020C40D0020AC
:104CE0003C0400200C0E0020540E0020B0020020D6
:104CF00000140240F0B4046BBDF9105061750E123F
:104D000008211F124FEA222CE27545FA01F226759E
:104D100063764FF4007684F816C027760023E57694
:104D2000A27621612660C4E902336421F0BCFCF75D
:104D300025BA00BFF0B4046B0D1217121E12E275F3
:104D400000222575617540F2FF150821A77563766D
:104D50002676628321612560C4E902226421F0BCC9
:104D6000FCF70CBA2DE9F047164E174CDFF86080BF
:104D7000164F82B08A464FF037090546002230466A
:104D80004021FDF7A7F805F07F0521464246384649
:104D9000CDF8009001232570FDF79AFC424621468C
:104DA0000123CDF80090384684F800A0FDF790FC70
:104DB000304601224021FDF78DF8002002B0BDE809
:104DC000F08700BF0014024011040020E80E00200C
:104DD0001004002038B505460C462A200021FFF7B4
:104DE000C1FF0220FCF7A2F829462920FFF7BAFFED
:104DF0000220FCF79BF821466420FFF7B3FF022056
:104E0000FCF794F881212A20FFF7ACFF0A20BDE8C7
:104E10003840FCF78BB800BF2DE9F043144F154D17
:104E2000154CDFF8588083B04FF037090646002252
:104E300038464021FDF74EF866F07F0629462246A7
:104E40004046CDF8009001232E70FDF741FC294625
:104E500022460123CDF800904046FDF739FC384644
:104E600001224021FDF736F8207803B0BDE8F08339
:104E7000001402401104002010040020E80E00205D
:104E800010B501463220FFF76DFF0A20FCF74EF8FF
:104E900080213420FFF766FF0A20FCF747F8352011
:104EA000FFF7BAFF002104463420FFF75BFF0A201A
:104EB000FCF73CF8204610BD2DE9F047154D164E85
:104EC000164F82B089469246044600222846402169
:104ED000FDF700F8124B134A4FF0370844F08004F6
:104EE000CDF8008019461C70304601233C70FDF758
:104EF000EFFB53464A463946CDF800803046FDF771
:104F0000E7FB284601224021FCF7E4FF002002B025
:104F1000BDE8F08700140240E80E002030000020B9
:104F2000110400201004002010B530216A20FFF782
:104F300019FF0A20FBF7FAFF0D212420FFF712FFCB
:104F40000A20FBF7F3FF0E212820FFF70BFF0A20B2
:104F5000FBF7ECFF8E213120FFF704FF0A20FBF75F
:104F6000E5FF01210B20FFF735FF0A20FBF7DEFFED
:104F70000020FFF785FF102802D00124204610BD35
:104F800001210B20FFF726FF0A20FBF7CFFF0021AE
:104F90000A20FFF71FFF0A20FFF772FF0446C8B977
:104FA0000A20FBF7C3FF21460B20FFF713FF0B205E
:104FB000FFF766FF044680B90A20FBF7B7FF2421FC
:104FC0004120FFF707FF4120FFF75AFF242806D0B2
:104FD0000424D3E70224204610BD0324CEE70A2090
:104FE000FBF7A4FFC0214220FFF7F4FE4220FFF7A9
:104FF00047FFC02801D00524C0E70A20FBF796FF31
:1050000021462A20FFF7AEFE0A20FBF78FFF21463C
:105010003420FFF7A7FE0A20FBF788FF0E21282087
:10502000FFF7A0FE0220FBF781FF0A212920FFF7EE
:1050300099FE0220FBF77AFF01216420FFF792FE20
:105040000220FBF773FF8E212520FFF78BFE022045
:10505000FBF76CFF03212620FFF784FE0220FBF7FD
:1050600065FF03213420FFF77DFE0220FBF75EFF82
:1050700003216720FFF776FE0220FBF757FF81210F
:105080002A20FFF76FFE0620FBF750FF862127201E
:10509000FFF768FE0220FBF749FF6420FBF746FF9D
:1050A0006CE700BF2DE9F04F83B04FF49673394D94
:1050B000394C01930E2237493B20FFF7FDFE95F84E
:1050C00000B0AF78287995F808A095F80A9095F87F
:1050D0000C806E7895F803E095F805C0697AEA7A55
:1050E0006B7B4EEA072E46EA0B26E78AB4F814B02B
:1050F0004CEA002C41EA0A21208BB4F81AA042EABB
:10510000092243EA0823B4F81C90B4F81E808444B2
:105110004344774451444A445E440520E383A682D5
:10512000E782A4F818C06183A283FBF7FFFE019B0E
:10513000013B0193BED1194BB4F91460019FB4F93E
:105140001650A78383FB06C7F617C6EB6716B4F99C
:105150001800A68283FB0576ED17C5EB6615B4F93A
:105160001A10B4F91E20E58283FB0065C017C0EB5E
:10517000651083FB016583FB0263C917D217C1EB7E
:105180006511C2EB631320836183E38303B0BDE841
:10519000F08F00BFD00E0020B00E0020B5814E1B56
:1051A00070B5642086B0FBF7C1FE7520FFF734FEB2
:1051B0001E4B1F4E1870002302936C2540F21A44B8
:1051C00041F61B0041F21C01059340F21D2242F200
:1051D0006A038DF80850ADF80A40ADF80C00ADF840
:1051E0000E100196ADF81020ADF8123001AC0DF1A3
:1051F000160580216B2002E0A078E1780234FFF7E9
:10520000B1FD0120FBF792FEAC42F5D118211B2025
:10521000FFF7A8FD10211C20FFF7A4FDFFF784FE77
:10522000FFF740FF002006B070BD00BFA60E0020B3
:105230006B806B0338B5504BB3F90620B3F9080007
:10524000002A1CDB1AD0002836DD92FBF0F0FBF7B9
:1052500029F921F0004319460022484BFBF712FCC4
:10526000002844D0464B474A1A60474C4749484BB0
:10527000484D4948494A256008601A6038BD0028F1
:105280004BDBFBD092FBF0F0FBF70CF921F0004375
:1052900019460022394B3C4CFBF7F4FB384B404A93
:1052A000002830D01A603949394B3B4D39483D4AC6
:1052B000256008601A6038BDE0D092FBF0F0FBF783
:1052C000F1F821F00043194600222C4B2E4CFBF73D
:1052D000D9FB2B4B344A002844D01A602B492C4B65
:1052E000324D2D48324A256008601A6038BD244A84
:1052F000304B1360244C2549254A2F4D2F482560FB
:105300000860136038BD1A602049214B2B4D2A4894
:105310002B4A256008601A6038BD92FBF0F0FBF75D
:10532000C1F821F0004319460022144BFBF7AAFBF9
:10533000134B58B1194A1A60134C1449144B164DAB
:105340002048214A256008601A6038BD1F4A1A604B
:105350000D4C0E490E4B1E4D1E481F4A256008601D
:105360001A6038BD1A600949094B1A4D1B481C4A7E
:10537000256008601A6038BDD00300200000F03FAF
:105380002C00002052499D3A04040020080400200B
:105390000C040020355E7ABFA8C64BBE0AD7A3BB5B
:1053A0000AD7A33BA69B443C0AD7233B355E7A3FF2
:1053B0006F12033C99BB163BE17A54BF68910DBF55
:1053C00099BB16BBBE9F7A3F4ED111BC6F1203BC76
:1053D0007B140EBFE17A543F6F1203BB295C0FBFF1
:1053E000BC74933BBDF800C0017006EE903A07EE26
:1053F00010CABDF904C080ED100AB8EE666A07EE67
:1054000090CA06EE902AB8EE477AF8EE666AF8EE91
:10541000E77A0023C0ED010A80ED031AC0ED041AFB
:1054200080ED052A80ED117A80ED0F6AC0ED0E6ADD
:10543000C0ED127A0363704780ED030AC0ED040AE1
:1054400080ED051A704700BF10B5C36C04462DED02
:10545000028B0365B0EE408AFBF762FD94ED017AA2
:10546000D4ED106A236DD4ED075A94ED0C0AE06474
:1054700037EE486AC01AB5EEC06AF1EE10FAD4BF32
:10548000B1EE467AB0EE467AF4EEC76AF1EE10FA63
:1054900084ED068A84F8540084ED076AC4ED085A46
:1054A00084ED0D0A48D5D4ED0A7A94ED047A94ED92
:1054B0000F5AD4ED036A94ED050AE6EE077A76EE0C
:1054C000655AF4EEC57AF1EE10FAC4ED0A7AC4BF5B
:1054D000F0EE457A84ED0A5AB1EE455AB4EEE75A39
:1054E000F1EE10FA26EE267AC8BFF0EE457A65EEA8
:1054F000805A77EE277A84ED097A37EEA50A94ED83
:105500000E7AC8BF84ED0A5AB4EEC70AF1EE10FA5B
:1055100084ED0C0AC4BFB0EE470A84ED0C7AB1EEFC
:10552000477AB4EEC07AF1EE10FAC4ED0B5AC4BF5C
:10553000B0EE470A84ED0C7ABDEC028B10BD00BFC3
:105540000349044A044B0366C0E91612704700BFC2
:10555000E55300083954000849540008DFF834D0F6
:10556000002103E00C4B5B58435004310B480C4BBB
:1055700042189A42F6D30B4A02E0002342F8043B59
:10558000094B9A42F9D3FFF747F800F019F8FEF7F4
:1055900083F9704700000320187500080000002000
:1055A0001002002010020020440F0020FEE700211E
:1055B00000F042BE014B1868704700BF4000002059
:1055C00070B50D4E0D4CA41BA4100025A54209D1A9
:1055D0000B4E0C4C01F02AFEA41BA4100025A54282
:1055E00005D170BD56F8253098470135EEE756F8DD
:1055F000253098470135F2E710750008107500084E
:10560000107500081475000802440346934200D147
:10561000704703F8011BF9E770B504460D4645ECE9
:10562000104B164601F02CFC51EC100B7EB1C5F36B
:105630000A53C3F16B03002B09DD1B0503F17F55F2
:10564000002405F5401522462B46FAF795FF70BD5C
:105650002DE9F04F1F46A1B00023814638460E4683
:1056600017921C9301F022F980460068FAF7C0FDFA
:105670004FF0000A04464FF0000B1B961B9B1A7854
:105680000D2A32D8092A36D2002A3ED000230D93A3
:105690001B9D2B78302B40F0AC806B78582B01D0C1
:1056A000782B67D10D9B01931CAB009302971DAB28
:1056B000884A1BA9484600F022FE10F0070406465F
:1056C00005D0062C2BD1013500231B950D93179B7C
:1056D000002B40F09A850D9BE3B152460BF100433D
:1056E00043EC102B21B0BDE8F08F2B2A15D02D2ACA
:1056F00004D0202ACAD101331B93BFE701220D92A7
:105700005A1C1B925B78002BC2D1179B1B96002B57
:1057100040F0798552465B46E2E70022EFE71C9AAB
:105720003AB135211EA801F0A3FC1C99484601F0AE
:1057300010F9013C042C06D8DFE804F00A03141722
:105740000A00DDE91EAB3007C1D54BF0004BBEE7C8
:10575000DDE91EA31D9A23F4801302F2334243EACB
:10576000025BF0E7DFF870B1EDE76FF0004B4FF050
:10577000FF3AE8E71B9B5A1C1B925B78302BF9D051
:10578000002BA4D00123002506931B9B08930795AB
:1057900005950A221B980778A7F13003D9B2092989
:1057A00029D92246D8F8001001F016FD002831D082
:1057B0000020059C04903B460246652B01D0452BFA
:1057C00014D124B910B9069B002B9ED000241B9E37
:1057D000731C1B9373782B2B78D02D2B70D04FF02C
:1057E000000CA3F13007092F7CD91B964FF0000E57
:1057F0009AE00023C7E705990829DDBF079902FB56
:105800000133079302FB0535059B013001330593F6
:105810001B90BFE71B9B1A191B92059A1B5D002A60
:1058200037D0059C0246A3F13001092913D9012183
:105830000491C2E71B9B5A1C1B925B780130302BF2
:10584000F8D0A3F13102082A00F2E4841B9A0892EE
:10585000024600200446B3F1300E00F1010112D0DF
:105860000A4400EB040C21460A278C4513D1211869
:10587000082904F10104044419DC079B0A2101FBF7
:1058800003E3079300211B9B581C1B905B78084681
:10589000C9E70598D3E7082901F1010103DC079B5B
:1058A0007B430793E1E71029D8BF7D43DDE7102C48
:1058B000DCBF0A2101FB05E5E4E70123049381E74E
:1058C0004FF0010CB31C1B93B3788AE74FF0000C28
:1058D000F8E700BFA47200080000F07F1B9B5F1C6C
:1058E0001B975B78302BF9D0A3F13107082F3FF6D7
:1058F0007DAFA3F1300E1B9B0A931B9B5F1C1B9774
:105900005B78A3F13008B8F1090F37D90A997F1AEB
:10591000082F44F61F6737DCBE45A8BFBE46BCF162
:10592000000F01D0CEF1000E002C51D100287FF4E1
:10593000CEAE069A002A7FF4CAAE049A002A7FF4FB
:10594000E4AE4E2B27D021DC492B7FF4DEAEA049FC
:105950001BA800F007FF00283FF4D7AE1B9B9D4912
:10596000013B1BA81B9300F0FDFE10B91B9B0133EC
:105970001B93DFF874B24FF0000AA8E60A2101FB7E
:105980000E3EAEF1300EB8E7BE46C8E7692BDED05A
:105990006E2B7FF4BAAE90491BA800F0E3FE0028FE
:1059A0003FF4B3AE1B9B1B78282B0ED11EAA8B494C
:1059B0001BA800F0EBFE052807D11F9BDDF878A09F
:1059C00043F0FF4B4BF4E00B81E6DFF824B2D2E763
:1059D000AEEB02030693059B0798002B08BF2346F6
:1059E000102C0593A046A8BF4FF01008FAF74AFD07
:1059F000092C82468B4613DC069B002B3FF467AED6
:105A0000069B7ADD162B61DC754A02EBC30EDEE9DC
:105A1000000152465B46FAF7AFFD82468B4656E6DA
:105A20006F4B03EBC80353E91223FAF7A5FD0646B3
:105A300028460F46FAF726FD02460B463046394601
:105A4000FAF7E4FB0F2C82468B46D5DD069BA4EBD0
:105A500008089844B8F1000F40F3968018F00F033F
:105A60000AD05F4901EBC30152465B46D1E9000110
:105A7000FAF782FD82468B4638F00F0873D0B8F5EE
:105A80009A7F47DD0024A046079405942223DFF87F
:105A900058B1C9F800304FF0000A079B002B3FF4C3
:105AA00016AE1C99484600F054FF0599484600F090
:105AB00050FF4146484600F04CFF0799484600F029
:105AC00048FF2146484600F044FF00E6069AC4F12C
:105AD00025039342BADB424DC4F10F0405EBC40128
